{
  "_format": "hh-sol-artifact-1",
  "contractName": "kbMarket",
  "sourceName": "contracts/kbMarket.sol",
  "abi": [
    {
      "inputs": [],
      "stateMutability": "nonpayable",
      "type": "constructor"
    },
    {
      "anonymous": false,
      "inputs": [
        {
          "indexed": true,
          "internalType": "uint256",
          "name": "itemId",
          "type": "uint256"
        },
        {
          "indexed": true,
          "internalType": "address",
          "name": "nftContract",
          "type": "address"
        },
        {
          "indexed": true,
          "internalType": "uint256",
          "name": "tokenId",
          "type": "uint256"
        },
        {
          "indexed": false,
          "internalType": "address",
          "name": "seller",
          "type": "address"
        },
        {
          "indexed": false,
          "internalType": "address",
          "name": "owner",
          "type": "address"
        },
        {
          "indexed": false,
          "internalType": "uint256",
          "name": "price",
          "type": "uint256"
        },
        {
          "indexed": false,
          "internalType": "bool",
          "name": "sold",
          "type": "bool"
        }
      ],
      "name": "MarketTokenMinted",
      "type": "event"
    },
    {
      "inputs": [
        {
          "internalType": "address",
          "name": "nftContract",
          "type": "address"
        },
        {
          "internalType": "uint256",
          "name": "itemId",
          "type": "uint256"
        }
      ],
      "name": "createMarketSale",
      "outputs": [],
      "stateMutability": "payable",
      "type": "function"
    },
    {
      "inputs": [],
      "name": "fetchItemsCreated",
      "outputs": [
        {
          "components": [
            {
              "internalType": "uint256",
              "name": "itemId",
              "type": "uint256"
            },
            {
              "internalType": "address",
              "name": "nftContract",
              "type": "address"
            },
            {
              "internalType": "uint256",
              "name": "tokenId",
              "type": "uint256"
            },
            {
              "internalType": "address payable",
              "name": "seller",
              "type": "address"
            },
            {
              "internalType": "address payable",
              "name": "owner",
              "type": "address"
            },
            {
              "internalType": "uint256",
              "name": "price",
              "type": "uint256"
            },
            {
              "internalType": "bool",
              "name": "sold",
              "type": "bool"
            }
          ],
          "internalType": "struct kbMarket.MarketToken[]",
          "name": "",
          "type": "tuple[]"
        }
      ],
      "stateMutability": "view",
      "type": "function"
    },
    {
      "inputs": [],
      "name": "fetchMarketTokens",
      "outputs": [
        {
          "components": [
            {
              "internalType": "uint256",
              "name": "itemId",
              "type": "uint256"
            },
            {
              "internalType": "address",
              "name": "nftContract",
              "type": "address"
            },
            {
              "internalType": "uint256",
              "name": "tokenId",
              "type": "uint256"
            },
            {
              "internalType": "address payable",
              "name": "seller",
              "type": "address"
            },
            {
              "internalType": "address payable",
              "name": "owner",
              "type": "address"
            },
            {
              "internalType": "uint256",
              "name": "price",
              "type": "uint256"
            },
            {
              "internalType": "bool",
              "name": "sold",
              "type": "bool"
            }
          ],
          "internalType": "struct kbMarket.MarketToken[]",
          "name": "",
          "type": "tuple[]"
        }
      ],
      "stateMutability": "view",
      "type": "function"
    },
    {
      "inputs": [],
      "name": "fetchMyNFTs",
      "outputs": [
        {
          "components": [
            {
              "internalType": "uint256",
              "name": "itemId",
              "type": "uint256"
            },
            {
              "internalType": "address",
              "name": "nftContract",
              "type": "address"
            },
            {
              "internalType": "uint256",
              "name": "tokenId",
              "type": "uint256"
            },
            {
              "internalType": "address payable",
              "name": "seller",
              "type": "address"
            },
            {
              "internalType": "address payable",
              "name": "owner",
              "type": "address"
            },
            {
              "internalType": "uint256",
              "name": "price",
              "type": "uint256"
            },
            {
              "internalType": "bool",
              "name": "sold",
              "type": "bool"
            }
          ],
          "internalType": "struct kbMarket.MarketToken[]",
          "name": "",
          "type": "tuple[]"
        }
      ],
      "stateMutability": "view",
      "type": "function"
    },
    {
      "inputs": [],
      "name": "getListingPrice",
      "outputs": [
        {
          "internalType": "uint256",
          "name": "",
          "type": "uint256"
        }
      ],
      "stateMutability": "view",
      "type": "function"
    },
    {
      "inputs": [
        {
          "internalType": "address",
          "name": "nftContract",
          "type": "address"
        },
        {
          "internalType": "uint256",
          "name": "tokenId",
          "type": "uint256"
        },
        {
          "internalType": "uint256",
          "name": "price",
          "type": "uint256"
        }
      ],
      "name": "makeMarketItem",
      "outputs": [],
      "stateMutability": "payable",
      "type": "function"
    }
  ],
  "bytecode": "0x6080604052669fdf42f6e4800060045534801561001b57600080fd5b506001600055600380546001600160a01b03191633179055610cff806100426000396000f3fe6080604052600436106100555760003560e01c806312e855851461005a578063202e37401461007d5780637a060f561461009f578063c23b139e146100b4578063c69bdf75146100c7578063f064c32e146100dc575b600080fd5b34801561006657600080fd5b506004546040519081526020015b60405180910390f35b34801561008957600080fd5b506100926100f1565b6040516100749190610bd5565b6100b26100ad366004610ba3565b6102ef565b005b6100b26100c2366004610b7a565b61058b565b3480156100d357600080fd5b5061009261078f565b3480156100e857600080fd5b5061009261092d565b606060006100fe60015490565b905060008060005b8381101561015f57336005600061011e846001610c69565b81526020810191909152604001600020600401546001600160a01b0316141561014d5761014a83610c98565b92505b8061015781610c98565b915050610106565b5060008267ffffffffffffffff81111561018957634e487b7160e01b600052604160045260246000fd5b6040519080825280602002602001820160405280156101c257816020015b6101af610b22565b8152602001906001900390816101a75790505b50905060005b848110156102e65733600560006101e0846001610c69565b81526020810191909152604001600020600401546001600160a01b031614156102d4576000600581610213846001610c69565b81526020808201929092526040908101600090812054808252600580855291839020835160e0810185528154815260018201546001600160a01b0390811696820196909652600282015494810194909452600381015485166060850152600481015490941660808401529083015460a0830152600683015460ff16151560c083015285519093508590879081106102ba57634e487b7160e01b600052603260045260246000fd5b6020026020010181905250846102cf90610c98565b945050505b806102de81610c98565b9150506101c8565b50949350505050565b600260005414156103475760405162461bcd60e51b815260206004820152601f60248201527f5265656e7472616e637947756172643a207265656e7472616e742063616c6c0060448201526064015b60405180910390fd5b6002600055806103905760405162461bcd60e51b815260206004820152601460248201527350726963652063616e6e6f74206265207a65726f60601b604482015260640161033e565b60045434146103f25760405162461bcd60e51b815260206004820152602860248201527f5072696365206d75737420626520657175616c20746f20746865206c697374696044820152676e6720707269636560c01b606482015260840161033e565b610400600180546001019055565b600061040b60015490565b6040805160e0810182528281526001600160a01b0387811660208084018281528486018a8152336060870181815260006080890181815260a08a018e815260c08b018381528d8452600598899052928c90209a518b55955160018b018054918b166001600160a01b0319928316179055945160028b0155915160038a018054918a1691861691909117905590516004808a01805492909916919094161790965591519286019290925592516006909401805494151560ff199095169490941790935592516323b872dd60e01b81529182015230602482015260448101869052919250906323b872dd90606401600060405180830381600087803b15801561051157600080fd5b505af1158015610525573d6000803e3d6000fd5b505060408051338152600060208201819052818301879052606082015290518693506001600160a01b038816925084917fcd9b0dfebab7db4dbe70606f69fadc8e987e7c80a65410f0bb5ae8bd72dabba7919081900360800190a4505060016000555050565b600260005414156105de5760405162461bcd60e51b815260206004820152601f60248201527f5265656e7472616e637947756172643a207265656e7472616e742063616c6c00604482015260640161033e565b60026000818155828152600560208190526040909120908101549101543482111561065a5760405162461bcd60e51b815260206004820152602660248201527f506c65617365207375626d69742074686520636f72726563742061736b696e6760448201526520707269636560d01b606482015260840161033e565b6000838152600560205260408082206003015490516001600160a01b03909116913480156108fc02929091818181858888f193505050501580156106a2573d6000803e3d6000fd5b506040516323b872dd60e01b8152306004820152336024820152604481018290526001600160a01b038516906323b872dd90606401600060405180830381600087803b1580156106f157600080fd5b505af1158015610705573d6000803e3d6000fd5b50505060008481526005602052604090206004810180546001600160a01b03191633179055600601805460ff1916600117905550610747600280546001019055565b6003546004546040516001600160a01b039092169181156108fc0291906000818181858888f19350505050158015610783573d6000803e3d6000fd5b50506001600055505050565b6060600061079c60015490565b905060006107a960025490565b6001546107b69190610c81565b90506000808267ffffffffffffffff8111156107e257634e487b7160e01b600052604160045260246000fd5b60405190808252806020026020018201604052801561081b57816020015b610808610b22565b8152602001906001900390816108005790505b50905060005b848110156102e6576000600581610839846001610c69565b81526020810191909152604001600020600401546001600160a01b0316141561091b576000610869826001610c69565b600081815260056020818152604092839020835160e0810185528154815260018201546001600160a01b0390811693820193909352600282015494810194909452600381015482166060850152600481015490911660808401529081015460a0830152600681015460ff16151560c083015285519293509185908790811061090157634e487b7160e01b600052603260045260246000fd5b60200260200101819052508461091690610c98565b945050505b8061092581610c98565b915050610821565b6060600061093a60015490565b905060008060005b8381101561099b57336005600061095a846001610c69565b81526020810191909152604001600020600301546001600160a01b031614156109895761098683610c98565b92505b8061099381610c98565b915050610942565b5060008267ffffffffffffffff8111156109c557634e487b7160e01b600052604160045260246000fd5b6040519080825280602002602001820160405280156109fe57816020015b6109eb610b22565b8152602001906001900390816109e35790505b50905060005b848110156102e6573360056000610a1c846001610c69565b81526020810191909152604001600020600301546001600160a01b03161415610b10576000600581610a4f846001610c69565b81526020808201929092526040908101600090812054808252600580855291839020835160e0810185528154815260018201546001600160a01b0390811696820196909652600282015494810194909452600381015485166060850152600481015490941660808401529083015460a0830152600683015460ff16151560c08301528551909350859087908110610af657634e487b7160e01b600052603260045260246000fd5b602002602001018190525084610b0b90610c98565b945050505b80610b1a81610c98565b915050610a04565b6040805160e081018252600080825260208201819052918101829052606081018290526080810182905260a0810182905260c081019190915290565b80356001600160a01b0381168114610b7557600080fd5b919050565b60008060408385031215610b8c578182fd5b610b9583610b5e565b946020939093013593505050565b600080600060608486031215610bb7578081fd5b610bc084610b5e565b95602085013595506040909401359392505050565b602080825282518282018190526000919060409081850190868401855b82811015610c5c57815180518552868101516001600160a01b039081168887015286820151878701526060808301518216908701526080808301519091169086015260a0808201519086015260c09081015115159085015260e09093019290850190600101610bf2565b5091979650505050505050565b60008219821115610c7c57610c7c610cb3565b500190565b600082821015610c9357610c93610cb3565b500390565b6000600019821415610cac57610cac610cb3565b5060010190565b634e487b7160e01b600052601160045260246000fdfea26469706673582212201bb322e2ad489d50eb00a7298193a48fc7d43b72a012d0e73e464f80e18d58e064736f6c63430008040033",
  "linkReferences": {},
  "deployedLinkReferences": {}
}